{
  "contracts/assetListing/AssetListingGUni.sol": {
    "AssetListingGUni": {
      "abi": [
        {
          "inputs": [],
          "name": "execute",
          "outputs": [],
          "stateMutability": "nonpayable",
          "type": "function"
        }
      ],
      "devdoc": {
        "kind": "dev",
        "methods": {},
        "version": 1
      },
      "evm": {
        "bytecode": {
          "linkReferences": {},
          "object": "608060405234801561001057600080fd5b50610cbb806100206000396000f3fe608060405234801561001057600080fd5b506004361061002b5760003560e01c80636146195414610030575b600080fd5b61003861003a565b005b6100426107e9565b506040805161010081018252600460c082019081526361416d6d60e01b60e0830152815281518083018352600f81526e7661726961626c6544656274416d6d60881b6020828101919091528083019190915282518084018452600d81526c737461626c6544656274416d6d60981b818301528284015282518084018452601081526f020b0bb329020a6a69026b0b935b2ba160851b81830152606083015282518084018452601e81527f4161766520414d4d204d61726b6574205661726961626c6520446562742000008183015260808301528251808401909352601c83527f4161766520414d4d204d61726b657420537461626c65204465627420000000009083015260a081019190915261015661081f565b50604080518082019091527350379f632ca68d36e50cfbc8f78fe16bd1499d1e815273d2eec91055f07fe24c9ccb25828ecfefd4be0c41602082015261019a61081f565b50604080518082019091527350379f632ca68d36e50cfbc8f78fe16bd1499d1e815273d2eec91055f07fe24c9ccb25828ecfefd4be0c4160208201526101de61081f565b5060408051808201909152737843ea2e3e60b24cc12b56c5627adc7f9f0749d6815273399e3bb2bbd49c570aa6edc6ac390e0d0acbbd5e602082015261022261083d565b5060408051608081018252600b8183019081526a47554e494441495553444360a81b606083015281528151808301909252600c82526b11d553925554d110d554d11560a21b60208381019190915281019190915261027e610864565b5060408051608081018252611770818301818152611b586060808501829052918452845180860186529283526020808401919091528301919091528251600480825260a082019094529192909190816020015b6102d9610891565b8152602001906001900390816102d157905050905060005b81518110156104cf57604080516102008101825273517ad97cd3543ee616cdb3d7765b201d6c9dffdd815273135bb9dfd7880a53ef86b6f281aa4c3a9addb85c602082015273104e375e7a62ac88317b93a2288865513c1dc51191810191909152601260608201527352e39422cd86a12a13773d86af5fdbf5665989ad608082015260a0810188836002811061038357fe5b60200201516001600160a01b0316815260200173464c71f6c2f760dda6093dcb91c24c39e5d6e18c6001600160a01b0316815260200173d784927ff2f95ba542bfc824c8a8a98f3495f6b56001600160a01b031681526020018583600281106103e857fe5b602002015181526020016104108a6060015187856002811061040657fe5b60200201516107bd565b81526020016104298a6000015187856002811061040657fe5b81526020016104428a6080015187856002811061040657fe5b815260200161045b8a6020015187856002811061040657fe5b81526020016104748a60a0015187856002811061040657fe5b815260200161048d8a6040015187856002811061040657fe5b815260200160405180604001604052806002815260200161060f60f31b8152508152508282815181106104bc57fe5b60209081029190910101526001016102f1565b5060408051600280825260608083018452926020830190803683375050604080516002808252606080830184529495509092509060208301908036833701905050905060005b60028110156105985787816002811061052a57fe5b602002015183828151811061053b57fe5b60200260200101906001600160a01b031690816001600160a01b03168152505086816002811061056757fe5b602002015182828151811061057857fe5b6001600160a01b0390921660209283029190910190910152600101610515565b50604051630abfd53160e41b815273a50ba011c48153de246e5192c8f9258a2ba79ca99063abfd5310906105d29085908590600401610a5b565b600060405180830381600087803b1580156105ec57600080fd5b505af1158015610600573d6000803e3d6000fd5b505060405163cef84c5160e01b81527323a875ede3f1030138701683e42e9b16a7f87768925063cef84c51915061063b908690600401610a89565b600060405180830381600087803b15801561065557600080fd5b505af1158015610669573d6000803e3d6000fd5b5050505060005b83518110156107b1577323a875ede3f1030138701683e42e9b16a7f87768637c4e560b8a836002811061069f57fe5b60200201518784600281106106b057fe5b6020020151518885600281106106c257fe5b602002015160200151612cec6040518563ffffffff1660e01b81526004016106ed9493929190610a35565b600060405180830381600087803b15801561070757600080fd5b505af115801561071b573d6000803e3d6000fd5b505050507323a875ede3f1030138701683e42e9b16a7f877686001600160a01b0316634b4e67538a836002811061074e57fe5b60200201516105dc6040518363ffffffff1660e01b8152600401610773929190610a1c565b600060405180830381600087803b15801561078d57600080fd5b505af11580156107a1573d6000803e3d6000fd5b5050600190920191506106709050565b50505050505050505050565b606082826040516020016107d29291906109ed565b604051602081830303815290604052905092915050565b6040518060c001604052806060815260200160608152602001606081526020016060815260200160608152602001606081525090565b60405180604001604052806002906020820280368337509192915050565b60405180604001604052806002905b606081526020019060019003908161084c5790505090565b60405180604001604052806002905b61087b610950565b8152602001906001900390816108735790505090565b60405180610200016040528060006001600160a01b0316815260200160006001600160a01b0316815260200160006001600160a01b03168152602001600060ff16815260200160006001600160a01b0316815260200160006001600160a01b0316815260200160006001600160a01b0316815260200160006001600160a01b0316815260200160608152602001606081526020016060815260200160608152602001606081526020016060815260200160608152602001606081525090565b604051806040016040528060008152602001600081525090565b6001600160a01b03169052565b6000815180845260208085019450808401835b838110156109af5781516001600160a01b03168752958201959082019060010161098a565b509495945050505050565b600081518084526109d2816020860160208601610c55565b601f01601f19169290920160200192915050565b60ff169052565b600083516109ff818460208801610c55565b835190830190610a13818360208801610c55565b01949350505050565b6001600160a01b03929092168252602082015260400190565b6001600160a01b0394909416845260208401929092526040830152606082015260800190565b600060408252610a6e6040830185610977565b8281036020840152610a808185610977565b95945050505050565b60208082528251828201819052600091906040908185019080840286018301878501865b83811015610c4757603f198984030185528151610200610ace85835161096a565b88820151610ade8a87018261096a565b5087820151610aef8987018261096a565b50606080830151610b02828801826109e6565b5050608080830151610b168288018261096a565b505060a080830151610b2a8288018261096a565b505060c080830151610b3e8288018261096a565b505060e080830151610b528288018261096a565b5050610100808301518282880152610b6c838801826109ba565b925050506101208083015186830382880152610b8883826109ba565b925050506101408083015186830382880152610ba483826109ba565b925050506101608083015186830382880152610bc083826109ba565b925050506101808083015186830382880152610bdc83826109ba565b925050506101a08083015186830382880152610bf883826109ba565b925050506101c08083015186830382880152610c1483826109ba565b925050506101e08083015192508582038187015250610c3381836109ba565b968901969450505090860190600101610aad565b509098975050505050505050565b60005b83811015610c70578181015183820152602001610c58565b83811115610c7f576000848401525b5050505056fea2646970667358221220280c3cf351fd1c12f4295b551070db9e182bef10339e1a95bf64cd4e080f36eb64736f6c63430007050033",
          "opcodes": "PUSH1 0x80 PUSH1 0x40 MSTORE CALLVALUE DUP1 ISZERO PUSH2 0x10 JUMPI PUSH1 0x0 DUP1 REVERT JUMPDEST POP PUSH2 0xCBB DUP1 PUSH2 0x20 PUSH1 0x0 CODECOPY PUSH1 0x0 RETURN INVALID PUSH1 0x80 PUSH1 0x40 MSTORE CALLVALUE DUP1 ISZERO PUSH2 0x10 JUMPI PUSH1 0x0 DUP1 REVERT JUMPDEST POP PUSH1 0x4 CALLDATASIZE LT PUSH2 0x2B JUMPI PUSH1 0x0 CALLDATALOAD PUSH1 0xE0 SHR DUP1 PUSH4 0x61461954 EQ PUSH2 0x30 JUMPI JUMPDEST PUSH1 0x0 DUP1 REVERT JUMPDEST PUSH2 0x38 PUSH2 0x3A JUMP JUMPDEST STOP JUMPDEST PUSH2 0x42 PUSH2 0x7E9 JUMP JUMPDEST POP PUSH1 0x40 DUP1 MLOAD PUSH2 0x100 DUP2 ADD DUP3 MSTORE PUSH1 0x4 PUSH1 0xC0 DUP3 ADD SWAP1 DUP2 MSTORE PUSH4 0x61416D6D PUSH1 0xE0 SHL PUSH1 0xE0 DUP4 ADD MSTORE DUP2 MSTORE DUP2 MLOAD DUP1 DUP4 ADD DUP4 MSTORE PUSH1 0xF DUP2 MSTORE PUSH15 0x7661726961626C6544656274416D6D PUSH1 0x88 SHL PUSH1 0x20 DUP3 DUP2 ADD SWAP2 SWAP1 SWAP2 MSTORE DUP1 DUP4 ADD SWAP2 SWAP1 SWAP2 MSTORE DUP3 MLOAD DUP1 DUP5 ADD DUP5 MSTORE PUSH1 0xD DUP2 MSTORE PUSH13 0x737461626C6544656274416D6D PUSH1 0x98 SHL DUP2 DUP4 ADD MSTORE DUP3 DUP5 ADD MSTORE DUP3 MLOAD DUP1 DUP5 ADD DUP5 MSTORE PUSH1 0x10 DUP2 MSTORE PUSH16 0x20B0BB329020A6A69026B0B935B2BA1 PUSH1 0x85 SHL DUP2 DUP4 ADD MSTORE PUSH1 0x60 DUP4 ADD MSTORE DUP3 MLOAD DUP1 DUP5 ADD DUP5 MSTORE PUSH1 0x1E DUP2 MSTORE PUSH32 0x4161766520414D4D204D61726B6574205661726961626C652044656274200000 DUP2 DUP4 ADD MSTORE PUSH1 0x80 DUP4 ADD MSTORE DUP3 MLOAD DUP1 DUP5 ADD SWAP1 SWAP4 MSTORE PUSH1 0x1C DUP4 MSTORE PUSH32 0x4161766520414D4D204D61726B657420537461626C6520446562742000000000 SWAP1 DUP4 ADD MSTORE PUSH1 0xA0 DUP2 ADD SWAP2 SWAP1 SWAP2 MSTORE PUSH2 0x156 PUSH2 0x81F JUMP JUMPDEST POP PUSH1 0x40 DUP1 MLOAD DUP1 DUP3 ADD SWAP1 SWAP2 MSTORE PUSH20 0x50379F632CA68D36E50CFBC8F78FE16BD1499D1E DUP2 MSTORE PUSH20 0xD2EEC91055F07FE24C9CCB25828ECFEFD4BE0C41 PUSH1 0x20 DUP3 ADD MSTORE PUSH2 0x19A PUSH2 0x81F JUMP JUMPDEST POP PUSH1 0x40 DUP1 MLOAD DUP1 DUP3 ADD SWAP1 SWAP2 MSTORE PUSH20 0x50379F632CA68D36E50CFBC8F78FE16BD1499D1E DUP2 MSTORE PUSH20 0xD2EEC91055F07FE24C9CCB25828ECFEFD4BE0C41 PUSH1 0x20 DUP3 ADD MSTORE PUSH2 0x1DE PUSH2 0x81F JUMP JUMPDEST POP PUSH1 0x40 DUP1 MLOAD DUP1 DUP3 ADD SWAP1 SWAP2 MSTORE PUSH20 0x7843EA2E3E60B24CC12B56C5627ADC7F9F0749D6 DUP2 MSTORE PUSH20 0x399E3BB2BBD49C570AA6EDC6AC390E0D0ACBBD5E PUSH1 0x20 DUP3 ADD MSTORE PUSH2 0x222 PUSH2 0x83D JUMP JUMPDEST POP PUSH1 0x40 DUP1 MLOAD PUSH1 0x80 DUP2 ADD DUP3 MSTORE PUSH1 0xB DUP2 DUP4 ADD SWAP1 DUP2 MSTORE PUSH11 0x47554E4944414955534443 PUSH1 0xA8 SHL PUSH1 0x60 DUP4 ADD MSTORE DUP2 MSTORE DUP2 MLOAD DUP1 DUP4 ADD SWAP1 SWAP3 MSTORE PUSH1 0xC DUP3 MSTORE PUSH12 0x11D553925554D110D554D115 PUSH1 0xA2 SHL PUSH1 0x20 DUP4 DUP2 ADD SWAP2 SWAP1 SWAP2 MSTORE DUP2 ADD SWAP2 SWAP1 SWAP2 MSTORE PUSH2 0x27E PUSH2 0x864 JUMP JUMPDEST POP PUSH1 0x40 DUP1 MLOAD PUSH1 0x80 DUP2 ADD DUP3 MSTORE PUSH2 0x1770 DUP2 DUP4 ADD DUP2 DUP2 MSTORE PUSH2 0x1B58 PUSH1 0x60 DUP1 DUP6 ADD DUP3 SWAP1 MSTORE SWAP2 DUP5 MSTORE DUP5 MLOAD DUP1 DUP7 ADD DUP7 MSTORE SWAP3 DUP4 MSTORE PUSH1 0x20 DUP1 DUP5 ADD SWAP2 SWAP1 SWAP2 MSTORE DUP4 ADD SWAP2 SWAP1 SWAP2 MSTORE DUP3 MLOAD PUSH1 0x4 DUP1 DUP3 MSTORE PUSH1 0xA0 DUP3 ADD SWAP1 SWAP5 MSTORE SWAP2 SWAP3 SWAP1 SWAP2 SWAP1 DUP2 PUSH1 0x20 ADD JUMPDEST PUSH2 0x2D9 PUSH2 0x891 JUMP JUMPDEST DUP2 MSTORE PUSH1 0x20 ADD SWAP1 PUSH1 0x1 SWAP1 SUB SWAP1 DUP2 PUSH2 0x2D1 JUMPI SWAP1 POP POP SWAP1 POP PUSH1 0x0 JUMPDEST DUP2 MLOAD DUP2 LT ISZERO PUSH2 0x4CF JUMPI PUSH1 0x40 DUP1 MLOAD PUSH2 0x200 DUP2 ADD DUP3 MSTORE PUSH20 0x517AD97CD3543EE616CDB3D7765B201D6C9DFFDD DUP2 MSTORE PUSH20 0x135BB9DFD7880A53EF86B6F281AA4C3A9ADDB85C PUSH1 0x20 DUP3 ADD MSTORE PUSH20 0x104E375E7A62AC88317B93A2288865513C1DC511 SWAP2 DUP2 ADD SWAP2 SWAP1 SWAP2 MSTORE PUSH1 0x12 PUSH1 0x60 DUP3 ADD MSTORE PUSH20 0x52E39422CD86A12A13773D86AF5FDBF5665989AD PUSH1 0x80 DUP3 ADD MSTORE PUSH1 0xA0 DUP2 ADD DUP9 DUP4 PUSH1 0x2 DUP2 LT PUSH2 0x383 JUMPI INVALID JUMPDEST PUSH1 0x20 MUL ADD MLOAD PUSH1 0x1 PUSH1 0x1 PUSH1 0xA0 SHL SUB AND DUP2 MSTORE PUSH1 0x20 ADD PUSH20 0x464C71F6C2F760DDA6093DCB91C24C39E5D6E18C PUSH1 0x1 PUSH1 0x1 PUSH1 0xA0 SHL SUB AND DUP2 MSTORE PUSH1 0x20 ADD PUSH20 0xD784927FF2F95BA542BFC824C8A8A98F3495F6B5 PUSH1 0x1 PUSH1 0x1 PUSH1 0xA0 SHL SUB AND DUP2 MSTORE PUSH1 0x20 ADD DUP6 DUP4 PUSH1 0x2 DUP2 LT PUSH2 0x3E8 JUMPI INVALID JUMPDEST PUSH1 0x20 MUL ADD MLOAD DUP2 MSTORE PUSH1 0x20 ADD PUSH2 0x410 DUP11 PUSH1 0x60 ADD MLOAD DUP8 DUP6 PUSH1 0x2 DUP2 LT PUSH2 0x406 JUMPI INVALID JUMPDEST PUSH1 0x20 MUL ADD MLOAD PUSH2 0x7BD JUMP JUMPDEST DUP2 MSTORE PUSH1 0x20 ADD PUSH2 0x429 DUP11 PUSH1 0x0 ADD MLOAD DUP8 DUP6 PUSH1 0x2 DUP2 LT PUSH2 0x406 JUMPI INVALID JUMPDEST DUP2 MSTORE PUSH1 0x20 ADD PUSH2 0x442 DUP11 PUSH1 0x80 ADD MLOAD DUP8 DUP6 PUSH1 0x2 DUP2 LT PUSH2 0x406 JUMPI INVALID JUMPDEST DUP2 MSTORE PUSH1 0x20 ADD PUSH2 0x45B DUP11 PUSH1 0x20 ADD MLOAD DUP8 DUP6 PUSH1 0x2 DUP2 LT PUSH2 0x406 JUMPI INVALID JUMPDEST DUP2 MSTORE PUSH1 0x20 ADD PUSH2 0x474 DUP11 PUSH1 0xA0 ADD MLOAD DUP8 DUP6 PUSH1 0x2 DUP2 LT PUSH2 0x406 JUMPI INVALID JUMPDEST DUP2 MSTORE PUSH1 0x20 ADD PUSH2 0x48D DUP11 PUSH1 0x40 ADD MLOAD DUP8 DUP6 PUSH1 0x2 DUP2 LT PUSH2 0x406 JUMPI INVALID JUMPDEST DUP2 MSTORE PUSH1 0x20 ADD PUSH1 0x40 MLOAD DUP1 PUSH1 0x40 ADD PUSH1 0x40 MSTORE DUP1 PUSH1 0x2 DUP2 MSTORE PUSH1 0x20 ADD PUSH2 0x60F PUSH1 0xF3 SHL DUP2 MSTORE POP DUP2 MSTORE POP DUP3 DUP3 DUP2 MLOAD DUP2 LT PUSH2 0x4BC JUMPI INVALID JUMPDEST PUSH1 0x20 SWAP1 DUP2 MUL SWAP2 SWAP1 SWAP2 ADD ADD MSTORE PUSH1 0x1 ADD PUSH2 0x2F1 JUMP JUMPDEST POP PUSH1 0x40 DUP1 MLOAD PUSH1 0x2 DUP1 DUP3 MSTORE PUSH1 0x60 DUP1 DUP4 ADD DUP5 MSTORE SWAP3 PUSH1 0x20 DUP4 ADD SWAP1 DUP1 CALLDATASIZE DUP4 CALLDATACOPY POP POP PUSH1 0x40 DUP1 MLOAD PUSH1 0x2 DUP1 DUP3 MSTORE PUSH1 0x60 DUP1 DUP4 ADD DUP5 MSTORE SWAP5 SWAP6 POP SWAP1 SWAP3 POP SWAP1 PUSH1 0x20 DUP4 ADD SWAP1 DUP1 CALLDATASIZE DUP4 CALLDATACOPY ADD SWAP1 POP POP SWAP1 POP PUSH1 0x0 JUMPDEST PUSH1 0x2 DUP2 LT ISZERO PUSH2 0x598 JUMPI DUP8 DUP2 PUSH1 0x2 DUP2 LT PUSH2 0x52A JUMPI INVALID JUMPDEST PUSH1 0x20 MUL ADD MLOAD DUP4 DUP3 DUP2 MLOAD DUP2 LT PUSH2 0x53B JUMPI INVALID JUMPDEST PUSH1 0x20 MUL PUSH1 0x20 ADD ADD SWAP1 PUSH1 0x1 PUSH1 0x1 PUSH1 0xA0 SHL SUB AND SWAP1 DUP2 PUSH1 0x1 PUSH1 0x1 PUSH1 0xA0 SHL SUB AND DUP2 MSTORE POP POP DUP7 DUP2 PUSH1 0x2 DUP2 LT PUSH2 0x567 JUMPI INVALID JUMPDEST PUSH1 0x20 MUL ADD MLOAD DUP3 DUP3 DUP2 MLOAD DUP2 LT PUSH2 0x578 JUMPI INVALID JUMPDEST PUSH1 0x1 PUSH1 0x1 PUSH1 0xA0 SHL SUB SWAP1 SWAP3 AND PUSH1 0x20 SWAP3 DUP4 MUL SWAP2 SWAP1 SWAP2 ADD SWAP1 SWAP2 ADD MSTORE PUSH1 0x1 ADD PUSH2 0x515 JUMP JUMPDEST POP PUSH1 0x40 MLOAD PUSH4 0xABFD531 PUSH1 0xE4 SHL DUP2 MSTORE PUSH20 0xA50BA011C48153DE246E5192C8F9258A2BA79CA9 SWAP1 PUSH4 0xABFD5310 SWAP1 PUSH2 0x5D2 SWAP1 DUP6 SWAP1 DUP6 SWAP1 PUSH1 0x4 ADD PUSH2 0xA5B JUMP JUMPDEST PUSH1 0x0 PUSH1 0x40 MLOAD DUP1 DUP4 SUB DUP2 PUSH1 0x0 DUP8 DUP1 EXTCODESIZE ISZERO DUP1 ISZERO PUSH2 0x5EC JUMPI PUSH1 0x0 DUP1 REVERT JUMPDEST POP GAS CALL ISZERO DUP1 ISZERO PUSH2 0x600 JUMPI RETURNDATASIZE PUSH1 0x0 DUP1 RETURNDATACOPY RETURNDATASIZE PUSH1 0x0 REVERT JUMPDEST POP POP PUSH1 0x40 MLOAD PUSH4 0xCEF84C51 PUSH1 0xE0 SHL DUP2 MSTORE PUSH20 0x23A875EDE3F1030138701683E42E9B16A7F87768 SWAP3 POP PUSH4 0xCEF84C51 SWAP2 POP PUSH2 0x63B SWAP1 DUP7 SWAP1 PUSH1 0x4 ADD PUSH2 0xA89 JUMP JUMPDEST PUSH1 0x0 PUSH1 0x40 MLOAD DUP1 DUP4 SUB DUP2 PUSH1 0x0 DUP8 DUP1 EXTCODESIZE ISZERO DUP1 ISZERO PUSH2 0x655 JUMPI PUSH1 0x0 DUP1 REVERT JUMPDEST POP GAS CALL ISZERO DUP1 ISZERO PUSH2 0x669 JUMPI RETURNDATASIZE PUSH1 0x0 DUP1 RETURNDATACOPY RETURNDATASIZE PUSH1 0x0 REVERT JUMPDEST POP POP POP POP PUSH1 0x0 JUMPDEST DUP4 MLOAD DUP2 LT ISZERO PUSH2 0x7B1 JUMPI PUSH20 0x23A875EDE3F1030138701683E42E9B16A7F87768 PUSH4 0x7C4E560B DUP11 DUP4 PUSH1 0x2 DUP2 LT PUSH2 0x69F JUMPI INVALID JUMPDEST PUSH1 0x20 MUL ADD MLOAD DUP8 DUP5 PUSH1 0x2 DUP2 LT PUSH2 0x6B0 JUMPI INVALID JUMPDEST PUSH1 0x20 MUL ADD MLOAD MLOAD DUP9 DUP6 PUSH1 0x2 DUP2 LT PUSH2 0x6C2 JUMPI INVALID JUMPDEST PUSH1 0x20 MUL ADD MLOAD PUSH1 0x20 ADD MLOAD PUSH2 0x2CEC PUSH1 0x40 MLOAD DUP6 PUSH4 0xFFFFFFFF AND PUSH1 0xE0 SHL DUP2 MSTORE PUSH1 0x4 ADD PUSH2 0x6ED SWAP5 SWAP4 SWAP3 SWAP2 SWAP1 PUSH2 0xA35 JUMP JUMPDEST PUSH1 0x0 PUSH1 0x40 MLOAD DUP1 DUP4 SUB DUP2 PUSH1 0x0 DUP8 DUP1 EXTCODESIZE ISZERO DUP1 ISZERO PUSH2 0x707 JUMPI PUSH1 0x0 DUP1 REVERT JUMPDEST POP GAS CALL ISZERO DUP1 ISZERO PUSH2 0x71B JUMPI RETURNDATASIZE PUSH1 0x0 DUP1 RETURNDATACOPY RETURNDATASIZE PUSH1 0x0 REVERT JUMPDEST POP POP POP POP PUSH20 0x23A875EDE3F1030138701683E42E9B16A7F87768 PUSH1 0x1 PUSH1 0x1 PUSH1 0xA0 SHL SUB AND PUSH4 0x4B4E6753 DUP11 DUP4 PUSH1 0x2 DUP2 LT PUSH2 0x74E JUMPI INVALID JUMPDEST PUSH1 0x20 MUL ADD MLOAD PUSH2 0x5DC PUSH1 0x40 MLOAD DUP4 PUSH4 0xFFFFFFFF AND PUSH1 0xE0 SHL DUP2 MSTORE PUSH1 0x4 ADD PUSH2 0x773 SWAP3 SWAP2 SWAP1 PUSH2 0xA1C JUMP JUMPDEST PUSH1 0x0 PUSH1 0x40 MLOAD DUP1 DUP4 SUB DUP2 PUSH1 0x0 DUP8 DUP1 EXTCODESIZE ISZERO DUP1 ISZERO PUSH2 0x78D JUMPI PUSH1 0x0 DUP1 REVERT JUMPDEST POP GAS CALL ISZERO DUP1 ISZERO PUSH2 0x7A1 JUMPI RETURNDATASIZE PUSH1 0x0 DUP1 RETURNDATACOPY RETURNDATASIZE PUSH1 0x0 REVERT JUMPDEST POP POP PUSH1 0x1 SWAP1 SWAP3 ADD SWAP2 POP PUSH2 0x670 SWAP1 POP JUMP JUMPDEST POP POP POP POP POP POP POP POP POP POP JUMP JUMPDEST PUSH1 0x60 DUP3 DUP3 PUSH1 0x40 MLOAD PUSH1 0x20 ADD PUSH2 0x7D2 SWAP3 SWAP2 SWAP1 PUSH2 0x9ED JUMP JUMPDEST PUSH1 0x40 MLOAD PUSH1 0x20 DUP2 DUP4 SUB SUB DUP2 MSTORE SWAP1 PUSH1 0x40 MSTORE SWAP1 POP SWAP3 SWAP2 POP POP JUMP JUMPDEST PUSH1 0x40 MLOAD DUP1 PUSH1 0xC0 ADD PUSH1 0x40 MSTORE DUP1 PUSH1 0x60 DUP2 MSTORE PUSH1 0x20 ADD PUSH1 0x60 DUP2 MSTORE PUSH1 0x20 ADD PUSH1 0x60 DUP2 MSTORE PUSH1 0x20 ADD PUSH1 0x60 DUP2 MSTORE PUSH1 0x20 ADD PUSH1 0x60 DUP2 MSTORE PUSH1 0x20 ADD PUSH1 0x60 DUP2 MSTORE POP SWAP1 JUMP JUMPDEST PUSH1 0x40 MLOAD DUP1 PUSH1 0x40 ADD PUSH1 0x40 MSTORE DUP1 PUSH1 0x2 SWAP1 PUSH1 0x20 DUP3 MUL DUP1 CALLDATASIZE DUP4 CALLDATACOPY POP SWAP2 SWAP3 SWAP2 POP POP JUMP JUMPDEST PUSH1 0x40 MLOAD DUP1 PUSH1 0x40 ADD PUSH1 0x40 MSTORE DUP1 PUSH1 0x2 SWAP1 JUMPDEST PUSH1 0x60 DUP2 MSTORE PUSH1 0x20 ADD SWAP1 PUSH1 0x1 SWAP1 SUB SWAP1 DUP2 PUSH2 0x84C JUMPI SWAP1 POP POP SWAP1 JUMP JUMPDEST PUSH1 0x40 MLOAD DUP1 PUSH1 0x40 ADD PUSH1 0x40 MSTORE DUP1 PUSH1 0x2 SWAP1 JUMPDEST PUSH2 0x87B PUSH2 0x950 JUMP JUMPDEST DUP2 MSTORE PUSH1 0x20 ADD SWAP1 PUSH1 0x1 SWAP1 SUB SWAP1 DUP2 PUSH2 0x873 JUMPI SWAP1 POP POP SWAP1 JUMP JUMPDEST PUSH1 0x40 MLOAD DUP1 PUSH2 0x200 ADD PUSH1 0x40 MSTORE DUP1 PUSH1 0x0 PUSH1 0x1 PUSH1 0x1 PUSH1 0xA0 SHL SUB AND DUP2 MSTORE PUSH1 0x20 ADD PUSH1 0x0 PUSH1 0x1 PUSH1 0x1 PUSH1 0xA0 SHL SUB AND DUP2 MSTORE PUSH1 0x20 ADD PUSH1 0x0 PUSH1 0x1 PUSH1 0x1 PUSH1 0xA0 SHL SUB AND DUP2 MSTORE PUSH1 0x20 ADD PUSH1 0x0 PUSH1 0xFF AND DUP2 MSTORE PUSH1 0x20 ADD PUSH1 0x0 PUSH1 0x1 PUSH1 0x1 PUSH1 0xA0 SHL SUB AND DUP2 MSTORE PUSH1 0x20 ADD PUSH1 0x0 PUSH1 0x1 PUSH1 0x1 PUSH1 0xA0 SHL SUB AND DUP2 MSTORE PUSH1 0x20 ADD PUSH1 0x0 PUSH1 0x1 PUSH1 0x1 PUSH1 0xA0 SHL SUB AND DUP2 MSTORE PUSH1 0x20 ADD PUSH1 0x0 PUSH1 0x1 PUSH1 0x1 PUSH1 0xA0 SHL SUB AND DUP2 MSTORE PUSH1 0x20 ADD PUSH1 0x60 DUP2 MSTORE PUSH1 0x20 ADD PUSH1 0x60 DUP2 MSTORE PUSH1 0x20 ADD PUSH1 0x60 DUP2 MSTORE PUSH1 0x20 ADD PUSH1 0x60 DUP2 MSTORE PUSH1 0x20 ADD PUSH1 0x60 DUP2 MSTORE PUSH1 0x20 ADD PUSH1 0x60 DUP2 MSTORE PUSH1 0x20 ADD PUSH1 0x60 DUP2 MSTORE PUSH1 0x20 ADD PUSH1 0x60 DUP2 MSTORE POP SWAP1 JUMP JUMPDEST PUSH1 0x40 MLOAD DUP1 PUSH1 0x40 ADD PUSH1 0x40 MSTORE DUP1 PUSH1 0x0 DUP2 MSTORE PUSH1 0x20 ADD PUSH1 0x0 DUP2 MSTORE POP SWAP1 JUMP JUMPDEST PUSH1 0x1 PUSH1 0x1 PUSH1 0xA0 SHL SUB AND SWAP1 MSTORE JUMP JUMPDEST PUSH1 0x0 DUP2 MLOAD DUP1 DUP5 MSTORE PUSH1 0x20 DUP1 DUP6 ADD SWAP5 POP DUP1 DUP5 ADD DUP4 JUMPDEST DUP4 DUP2 LT ISZERO PUSH2 0x9AF JUMPI DUP2 MLOAD PUSH1 0x1 PUSH1 0x1 PUSH1 0xA0 SHL SUB AND DUP8 MSTORE SWAP6 DUP3 ADD SWAP6 SWAP1 DUP3 ADD SWAP1 PUSH1 0x1 ADD PUSH2 0x98A JUMP JUMPDEST POP SWAP5 SWAP6 SWAP5 POP POP POP POP POP JUMP JUMPDEST PUSH1 0x0 DUP2 MLOAD DUP1 DUP5 MSTORE PUSH2 0x9D2 DUP2 PUSH1 0x20 DUP7 ADD PUSH1 0x20 DUP7 ADD PUSH2 0xC55 JUMP JUMPDEST PUSH1 0x1F ADD PUSH1 0x1F NOT AND SWAP3 SWAP1 SWAP3 ADD PUSH1 0x20 ADD SWAP3 SWAP2 POP POP JUMP JUMPDEST PUSH1 0xFF AND SWAP1 MSTORE JUMP JUMPDEST PUSH1 0x0 DUP4 MLOAD PUSH2 0x9FF DUP2 DUP5 PUSH1 0x20 DUP9 ADD PUSH2 0xC55 JUMP JUMPDEST DUP4 MLOAD SWAP1 DUP4 ADD SWAP1 PUSH2 0xA13 DUP2 DUP4 PUSH1 0x20 DUP9 ADD PUSH2 0xC55 JUMP JUMPDEST ADD SWAP5 SWAP4 POP POP POP POP JUMP JUMPDEST PUSH1 0x1 PUSH1 0x1 PUSH1 0xA0 SHL SUB SWAP3 SWAP1 SWAP3 AND DUP3 MSTORE PUSH1 0x20 DUP3 ADD MSTORE PUSH1 0x40 ADD SWAP1 JUMP JUMPDEST PUSH1 0x1 PUSH1 0x1 PUSH1 0xA0 SHL SUB SWAP5 SWAP1 SWAP5 AND DUP5 MSTORE PUSH1 0x20 DUP5 ADD SWAP3 SWAP1 SWAP3 MSTORE PUSH1 0x40 DUP4 ADD MSTORE PUSH1 0x60 DUP3 ADD MSTORE PUSH1 0x80 ADD SWAP1 JUMP JUMPDEST PUSH1 0x0 PUSH1 0x40 DUP3 MSTORE PUSH2 0xA6E PUSH1 0x40 DUP4 ADD DUP6 PUSH2 0x977 JUMP JUMPDEST DUP3 DUP2 SUB PUSH1 0x20 DUP5 ADD MSTORE PUSH2 0xA80 DUP2 DUP6 PUSH2 0x977 JUMP JUMPDEST SWAP6 SWAP5 POP POP POP POP POP JUMP JUMPDEST PUSH1 0x20 DUP1 DUP3 MSTORE DUP3 MLOAD DUP3 DUP3 ADD DUP2 SWAP1 MSTORE PUSH1 0x0 SWAP2 SWAP1 PUSH1 0x40 SWAP1 DUP2 DUP6 ADD SWAP1 DUP1 DUP5 MUL DUP7 ADD DUP4 ADD DUP8 DUP6 ADD DUP7 JUMPDEST DUP4 DUP2 LT ISZERO PUSH2 0xC47 JUMPI PUSH1 0x3F NOT DUP10 DUP5 SUB ADD DUP6 MSTORE DUP2 MLOAD PUSH2 0x200 PUSH2 0xACE DUP6 DUP4 MLOAD PUSH2 0x96A JUMP JUMPDEST DUP9 DUP3 ADD MLOAD PUSH2 0xADE DUP11 DUP8 ADD DUP3 PUSH2 0x96A JUMP JUMPDEST POP DUP8 DUP3 ADD MLOAD PUSH2 0xAEF DUP10 DUP8 ADD DUP3 PUSH2 0x96A JUMP JUMPDEST POP PUSH1 0x60 DUP1 DUP4 ADD MLOAD PUSH2 0xB02 DUP3 DUP9 ADD DUP3 PUSH2 0x9E6 JUMP JUMPDEST POP POP PUSH1 0x80 DUP1 DUP4 ADD MLOAD PUSH2 0xB16 DUP3 DUP9 ADD DUP3 PUSH2 0x96A JUMP JUMPDEST POP POP PUSH1 0xA0 DUP1 DUP4 ADD MLOAD PUSH2 0xB2A DUP3 DUP9 ADD DUP3 PUSH2 0x96A JUMP JUMPDEST POP POP PUSH1 0xC0 DUP1 DUP4 ADD MLOAD PUSH2 0xB3E DUP3 DUP9 ADD DUP3 PUSH2 0x96A JUMP JUMPDEST POP POP PUSH1 0xE0 DUP1 DUP4 ADD MLOAD PUSH2 0xB52 DUP3 DUP9 ADD DUP3 PUSH2 0x96A JUMP JUMPDEST POP POP PUSH2 0x100 DUP1 DUP4 ADD MLOAD DUP3 DUP3 DUP9 ADD MSTORE PUSH2 0xB6C DUP4 DUP9 ADD DUP3 PUSH2 0x9BA JUMP JUMPDEST SWAP3 POP POP POP PUSH2 0x120 DUP1 DUP4 ADD MLOAD DUP7 DUP4 SUB DUP3 DUP9 ADD MSTORE PUSH2 0xB88 DUP4 DUP3 PUSH2 0x9BA JUMP JUMPDEST SWAP3 POP POP POP PUSH2 0x140 DUP1 DUP4 ADD MLOAD DUP7 DUP4 SUB DUP3 DUP9 ADD MSTORE PUSH2 0xBA4 DUP4 DUP3 PUSH2 0x9BA JUMP JUMPDEST SWAP3 POP POP POP PUSH2 0x160 DUP1 DUP4 ADD MLOAD DUP7 DUP4 SUB DUP3 DUP9 ADD MSTORE PUSH2 0xBC0 DUP4 DUP3 PUSH2 0x9BA JUMP JUMPDEST SWAP3 POP POP POP PUSH2 0x180 DUP1 DUP4 ADD MLOAD DUP7 DUP4 SUB DUP3 DUP9 ADD MSTORE PUSH2 0xBDC DUP4 DUP3 PUSH2 0x9BA JUMP JUMPDEST SWAP3 POP POP POP PUSH2 0x1A0 DUP1 DUP4 ADD MLOAD DUP7 DUP4 SUB DUP3 DUP9 ADD MSTORE PUSH2 0xBF8 DUP4 DUP3 PUSH2 0x9BA JUMP JUMPDEST SWAP3 POP POP POP PUSH2 0x1C0 DUP1 DUP4 ADD MLOAD DUP7 DUP4 SUB DUP3 DUP9 ADD MSTORE PUSH2 0xC14 DUP4 DUP3 PUSH2 0x9BA JUMP JUMPDEST SWAP3 POP POP POP PUSH2 0x1E0 DUP1 DUP4 ADD MLOAD SWAP3 POP DUP6 DUP3 SUB DUP2 DUP8 ADD MSTORE POP PUSH2 0xC33 DUP2 DUP4 PUSH2 0x9BA JUMP JUMPDEST SWAP7 DUP10 ADD SWAP7 SWAP5 POP POP POP SWAP1 DUP7 ADD SWAP1 PUSH1 0x1 ADD PUSH2 0xAAD JUMP JUMPDEST POP SWAP1 SWAP9 SWAP8 POP POP POP POP POP POP POP POP JUMP JUMPDEST PUSH1 0x0 JUMPDEST DUP4 DUP2 LT ISZERO PUSH2 0xC70 JUMPI DUP2 DUP2 ADD MLOAD DUP4 DUP3 ADD MSTORE PUSH1 0x20 ADD PUSH2 0xC58 JUMP JUMPDEST DUP4 DUP2 GT ISZERO PUSH2 0xC7F JUMPI PUSH1 0x0 DUP5 DUP5 ADD MSTORE JUMPDEST POP POP POP POP JUMP INVALID LOG2 PUSH5 0x6970667358 0x22 SLT KECCAK256 0x28 0xC EXTCODECOPY RETURN MLOAD REVERT SHR SLT DELEGATECALL 0x29 JUMPDEST SSTORE LT PUSH17 0xDB9E182BEF10339E1A95BF64CD4E080F36 0xEB PUSH5 0x736F6C6343 STOP SMOD SDIV STOP CALLER "
        },
        "gasEstimates": {
          "creation": {
            "codeDepositCost": "651800",
            "executionCost": "683",
            "totalCost": "652483"
          },
          "external": {
            "execute()": "infinite"
          },
          "internal": {
            "concat(string memory,string memory)": "infinite"
          }
        },
        "methodIdentifiers": {
          "execute()": "61461954"
        }
      },
      "storageLayout": {
        "storage": [],
        "types": null
      },
      "userdoc": {
        "kind": "user",
        "methods": {},
        "version": 1
      }
    }
  }
}