{
  "contracts/assetListing/AssetListingProposalGenericExecutor.sol": {
    "AssetListingProposalGenericExecutor": {
      "abi": [
        {
          "anonymous": false,
          "inputs": [],
          "name": "ProposalExecuted",
          "type": "event"
        },
        {
          "inputs": [],
          "name": "LENDING_POOL_CONFIGURATOR_V2",
          "outputs": [
            {
              "internalType": "contract ILendingPoolConfiguratorV2",
              "name": "",
              "type": "address"
            }
          ],
          "stateMutability": "view",
          "type": "function"
        },
        {
          "inputs": [
            {
              "internalType": "address",
              "name": "token",
              "type": "address"
            },
            {
              "internalType": "address",
              "name": "aToken",
              "type": "address"
            },
            {
              "internalType": "address",
              "name": "stableDebtToken",
              "type": "address"
            },
            {
              "internalType": "address",
              "name": "variablDebtToken",
              "type": "address"
            },
            {
              "internalType": "address",
              "name": "interestStrategy",
              "type": "address"
            },
            {
              "internalType": "uint256",
              "name": "ltv",
              "type": "uint256"
            },
            {
              "internalType": "uint256",
              "name": "liquidationThreshold",
              "type": "uint256"
            },
            {
              "internalType": "uint256",
              "name": "liquidationBonus",
              "type": "uint256"
            },
            {
              "internalType": "uint256",
              "name": "reserveFactor",
              "type": "uint256"
            },
            {
              "internalType": "uint8",
              "name": "decimals",
              "type": "uint8"
            },
            {
              "internalType": "bool",
              "name": "enableBorrowOnReserve",
              "type": "bool"
            },
            {
              "internalType": "bool",
              "name": "enableAsCollateral",
              "type": "bool"
            }
          ],
          "name": "execute",
          "outputs": [],
          "stateMutability": "nonpayable",
          "type": "function"
        }
      ],
      "devdoc": {
        "author": "Aave*",
        "kind": "dev",
        "methods": {
          "execute(address,address,address,address,address,uint256,uint256,uint256,uint256,uint8,bool,bool)": {
            "details": "Payload execution function, called once a proposal passed in the Aave governance"
          }
        },
        "title": "AssetListingProposalGenericExecutor",
        "version": 1
      },
      "evm": {
        "bytecode": {
          "linkReferences": {},
          "object": "608060405234801561001057600080fd5b506105f5806100206000396000f3fe608060405234801561001057600080fd5b50600436106100365760003560e01c806334f6cbbb1461003b5780633dad012a1461005f575b600080fd5b6100436100dd565b604080516001600160a01b039092168252519081900360200190f35b6100db600480360361018081101561007657600080fd5b506001600160a01b0381358116916020810135821691604082013581169160608101358216916080820135169060a08101359060c08101359060e0810135906101008101359060ff6101208201351690610140810135151590610160013515156100f5565b005b73311bb771e4f8952e6da169b425e7e92d6ac4575681565b8a6001600160a01b031663b16a19de6040518163ffffffff1660e01b815260040160206040518083038186803b15801561012e57600080fd5b505afa158015610142573d6000803e3d6000fd5b505050506040513d602081101561015857600080fd5b50516001600160a01b038d81169116146101b9576040805162461bcd60e51b815260206004820152601e60248201527f41544f4b454e3a2057524f4e475f554e4445524c59494e475f544f4b454e0000604482015290519081900360640190fd5b896001600160a01b031663b16a19de6040518163ffffffff1660e01b815260040160206040518083038186803b1580156101f257600080fd5b505afa158015610206573d6000803e3d6000fd5b505050506040513d602081101561021c57600080fd5b50516001600160a01b038d81169116146102675760405162461bcd60e51b81526004018080602001828103825260238152602001806105786023913960400191505060405180910390fd5b886001600160a01b031663b16a19de6040518163ffffffff1660e01b815260040160206040518083038186803b1580156102a057600080fd5b505afa1580156102b4573d6000803e3d6000fd5b505050506040513d60208110156102ca57600080fd5b50516001600160a01b038d81169116146103155760405162461bcd60e51b815260040180806020018281038252602581526020018061059b6025913960400191505060405180910390fd5b60408051636e801a7160e01b81526001600160a01b038d811660048301528c811660248301528b8116604483015260ff861660648301528a166084820152905173311bb771e4f8952e6da169b425e7e92d6ac4575691636e801a719160a480830192600092919082900301818387803b15801561039157600080fd5b505af11580156103a5573d6000803e3d6000fd5b5050505073311bb771e4f8952e6da169b425e7e92d6ac457566001600160a01b031663eede87c18d846040518363ffffffff1660e01b815260040180836001600160a01b03168152602001821515815260200192505050600060405180830381600087803b15801561041657600080fd5b505af115801561042a573d6000803e3d6000fd5b5050505073311bb771e4f8952e6da169b425e7e92d6ac457566001600160a01b0316634b4e67538d866040518363ffffffff1660e01b815260040180836001600160a01b0316815260200182815260200192505050600060405180830381600087803b15801561049957600080fd5b505af11580156104ad573d6000803e3d6000fd5b5050505080156105405760408051637c4e560b60e01b81526001600160a01b038e166004820152602481018990526044810188905260648101879052905173311bb771e4f8952e6da169b425e7e92d6ac4575691637c4e560b91608480830192600092919082900301818387803b15801561052757600080fd5b505af115801561053b573d6000803e3d6000fd5b505050505b6040517fcf88c657fb0ecbed2a624b6b4c626e2ceda32ea9ed16ea81de6362a6d965bd0890600090a150505050505050505050505056fe535441424c455f444542543a2057524f4e475f554e4445524c59494e475f544f4b454e5641524941424c455f444542543a2057524f4e475f554e4445524c59494e475f544f4b454ea2646970667358221220990db08181886352cdf54601e7e038fcf9bd06c4fe352b9ad5447e3525aa97e564736f6c634300060c0033",
          "opcodes": "PUSH1 0x80 PUSH1 0x40 MSTORE CALLVALUE DUP1 ISZERO PUSH2 0x10 JUMPI PUSH1 0x0 DUP1 REVERT JUMPDEST POP PUSH2 0x5F5 DUP1 PUSH2 0x20 PUSH1 0x0 CODECOPY PUSH1 0x0 RETURN INVALID PUSH1 0x80 PUSH1 0x40 MSTORE CALLVALUE DUP1 ISZERO PUSH2 0x10 JUMPI PUSH1 0x0 DUP1 REVERT JUMPDEST POP PUSH1 0x4 CALLDATASIZE LT PUSH2 0x36 JUMPI PUSH1 0x0 CALLDATALOAD PUSH1 0xE0 SHR DUP1 PUSH4 0x34F6CBBB EQ PUSH2 0x3B JUMPI DUP1 PUSH4 0x3DAD012A EQ PUSH2 0x5F JUMPI JUMPDEST PUSH1 0x0 DUP1 REVERT JUMPDEST PUSH2 0x43 PUSH2 0xDD JUMP JUMPDEST PUSH1 0x40 DUP1 MLOAD PUSH1 0x1 PUSH1 0x1 PUSH1 0xA0 SHL SUB SWAP1 SWAP3 AND DUP3 MSTORE MLOAD SWAP1 DUP2 SWAP1 SUB PUSH1 0x20 ADD SWAP1 RETURN JUMPDEST PUSH2 0xDB PUSH1 0x4 DUP1 CALLDATASIZE SUB PUSH2 0x180 DUP2 LT ISZERO PUSH2 0x76 JUMPI PUSH1 0x0 DUP1 REVERT JUMPDEST POP PUSH1 0x1 PUSH1 0x1 PUSH1 0xA0 SHL SUB DUP2 CALLDATALOAD DUP2 AND SWAP2 PUSH1 0x20 DUP2 ADD CALLDATALOAD DUP3 AND SWAP2 PUSH1 0x40 DUP3 ADD CALLDATALOAD DUP2 AND SWAP2 PUSH1 0x60 DUP2 ADD CALLDATALOAD DUP3 AND SWAP2 PUSH1 0x80 DUP3 ADD CALLDATALOAD AND SWAP1 PUSH1 0xA0 DUP2 ADD CALLDATALOAD SWAP1 PUSH1 0xC0 DUP2 ADD CALLDATALOAD SWAP1 PUSH1 0xE0 DUP2 ADD CALLDATALOAD SWAP1 PUSH2 0x100 DUP2 ADD CALLDATALOAD SWAP1 PUSH1 0xFF PUSH2 0x120 DUP3 ADD CALLDATALOAD AND SWAP1 PUSH2 0x140 DUP2 ADD CALLDATALOAD ISZERO ISZERO SWAP1 PUSH2 0x160 ADD CALLDATALOAD ISZERO ISZERO PUSH2 0xF5 JUMP JUMPDEST STOP JUMPDEST PUSH20 0x311BB771E4F8952E6DA169B425E7E92D6AC45756 DUP2 JUMP JUMPDEST DUP11 PUSH1 0x1 PUSH1 0x1 PUSH1 0xA0 SHL SUB AND PUSH4 0xB16A19DE PUSH1 0x40 MLOAD DUP2 PUSH4 0xFFFFFFFF AND PUSH1 0xE0 SHL DUP2 MSTORE PUSH1 0x4 ADD PUSH1 0x20 PUSH1 0x40 MLOAD DUP1 DUP4 SUB DUP2 DUP7 DUP1 EXTCODESIZE ISZERO DUP1 ISZERO PUSH2 0x12E JUMPI PUSH1 0x0 DUP1 REVERT JUMPDEST POP GAS STATICCALL ISZERO DUP1 ISZERO PUSH2 0x142 JUMPI RETURNDATASIZE PUSH1 0x0 DUP1 RETURNDATACOPY RETURNDATASIZE PUSH1 0x0 REVERT JUMPDEST POP POP POP POP PUSH1 0x40 MLOAD RETURNDATASIZE PUSH1 0x20 DUP2 LT ISZERO PUSH2 0x158 JUMPI PUSH1 0x0 DUP1 REVERT JUMPDEST POP MLOAD PUSH1 0x1 PUSH1 0x1 PUSH1 0xA0 SHL SUB DUP14 DUP2 AND SWAP2 AND EQ PUSH2 0x1B9 JUMPI PUSH1 0x40 DUP1 MLOAD PUSH3 0x461BCD PUSH1 0xE5 SHL DUP2 MSTORE PUSH1 0x20 PUSH1 0x4 DUP3 ADD MSTORE PUSH1 0x1E PUSH1 0x24 DUP3 ADD MSTORE PUSH32 0x41544F4B454E3A2057524F4E475F554E4445524C59494E475F544F4B454E0000 PUSH1 0x44 DUP3 ADD MSTORE SWAP1 MLOAD SWAP1 DUP2 SWAP1 SUB PUSH1 0x64 ADD SWAP1 REVERT JUMPDEST DUP10 PUSH1 0x1 PUSH1 0x1 PUSH1 0xA0 SHL SUB AND PUSH4 0xB16A19DE PUSH1 0x40 MLOAD DUP2 PUSH4 0xFFFFFFFF AND PUSH1 0xE0 SHL DUP2 MSTORE PUSH1 0x4 ADD PUSH1 0x20 PUSH1 0x40 MLOAD DUP1 DUP4 SUB DUP2 DUP7 DUP1 EXTCODESIZE ISZERO DUP1 ISZERO PUSH2 0x1F2 JUMPI PUSH1 0x0 DUP1 REVERT JUMPDEST POP GAS STATICCALL ISZERO DUP1 ISZERO PUSH2 0x206 JUMPI RETURNDATASIZE PUSH1 0x0 DUP1 RETURNDATACOPY RETURNDATASIZE PUSH1 0x0 REVERT JUMPDEST POP POP POP POP PUSH1 0x40 MLOAD RETURNDATASIZE PUSH1 0x20 DUP2 LT ISZERO PUSH2 0x21C JUMPI PUSH1 0x0 DUP1 REVERT JUMPDEST POP MLOAD PUSH1 0x1 PUSH1 0x1 PUSH1 0xA0 SHL SUB DUP14 DUP2 AND SWAP2 AND EQ PUSH2 0x267 JUMPI PUSH1 0x40 MLOAD PUSH3 0x461BCD PUSH1 0xE5 SHL DUP2 MSTORE PUSH1 0x4 ADD DUP1 DUP1 PUSH1 0x20 ADD DUP3 DUP2 SUB DUP3 MSTORE PUSH1 0x23 DUP2 MSTORE PUSH1 0x20 ADD DUP1 PUSH2 0x578 PUSH1 0x23 SWAP2 CODECOPY PUSH1 0x40 ADD SWAP2 POP POP PUSH1 0x40 MLOAD DUP1 SWAP2 SUB SWAP1 REVERT JUMPDEST DUP9 PUSH1 0x1 PUSH1 0x1 PUSH1 0xA0 SHL SUB AND PUSH4 0xB16A19DE PUSH1 0x40 MLOAD DUP2 PUSH4 0xFFFFFFFF AND PUSH1 0xE0 SHL DUP2 MSTORE PUSH1 0x4 ADD PUSH1 0x20 PUSH1 0x40 MLOAD DUP1 DUP4 SUB DUP2 DUP7 DUP1 EXTCODESIZE ISZERO DUP1 ISZERO PUSH2 0x2A0 JUMPI PUSH1 0x0 DUP1 REVERT JUMPDEST POP GAS STATICCALL ISZERO DUP1 ISZERO PUSH2 0x2B4 JUMPI RETURNDATASIZE PUSH1 0x0 DUP1 RETURNDATACOPY RETURNDATASIZE PUSH1 0x0 REVERT JUMPDEST POP POP POP POP PUSH1 0x40 MLOAD RETURNDATASIZE PUSH1 0x20 DUP2 LT ISZERO PUSH2 0x2CA JUMPI PUSH1 0x0 DUP1 REVERT JUMPDEST POP MLOAD PUSH1 0x1 PUSH1 0x1 PUSH1 0xA0 SHL SUB DUP14 DUP2 AND SWAP2 AND EQ PUSH2 0x315 JUMPI PUSH1 0x40 MLOAD PUSH3 0x461BCD PUSH1 0xE5 SHL DUP2 MSTORE PUSH1 0x4 ADD DUP1 DUP1 PUSH1 0x20 ADD DUP3 DUP2 SUB DUP3 MSTORE PUSH1 0x25 DUP2 MSTORE PUSH1 0x20 ADD DUP1 PUSH2 0x59B PUSH1 0x25 SWAP2 CODECOPY PUSH1 0x40 ADD SWAP2 POP POP PUSH1 0x40 MLOAD DUP1 SWAP2 SUB SWAP1 REVERT JUMPDEST PUSH1 0x40 DUP1 MLOAD PUSH4 0x6E801A71 PUSH1 0xE0 SHL DUP2 MSTORE PUSH1 0x1 PUSH1 0x1 PUSH1 0xA0 SHL SUB DUP14 DUP2 AND PUSH1 0x4 DUP4 ADD MSTORE DUP13 DUP2 AND PUSH1 0x24 DUP4 ADD MSTORE DUP12 DUP2 AND PUSH1 0x44 DUP4 ADD MSTORE PUSH1 0xFF DUP7 AND PUSH1 0x64 DUP4 ADD MSTORE DUP11 AND PUSH1 0x84 DUP3 ADD MSTORE SWAP1 MLOAD PUSH20 0x311BB771E4F8952E6DA169B425E7E92D6AC45756 SWAP2 PUSH4 0x6E801A71 SWAP2 PUSH1 0xA4 DUP1 DUP4 ADD SWAP3 PUSH1 0x0 SWAP3 SWAP2 SWAP1 DUP3 SWAP1 SUB ADD DUP2 DUP4 DUP8 DUP1 EXTCODESIZE ISZERO DUP1 ISZERO PUSH2 0x391 JUMPI PUSH1 0x0 DUP1 REVERT JUMPDEST POP GAS CALL ISZERO DUP1 ISZERO PUSH2 0x3A5 JUMPI RETURNDATASIZE PUSH1 0x0 DUP1 RETURNDATACOPY RETURNDATASIZE PUSH1 0x0 REVERT JUMPDEST POP POP POP POP PUSH20 0x311BB771E4F8952E6DA169B425E7E92D6AC45756 PUSH1 0x1 PUSH1 0x1 PUSH1 0xA0 SHL SUB AND PUSH4 0xEEDE87C1 DUP14 DUP5 PUSH1 0x40 MLOAD DUP4 PUSH4 0xFFFFFFFF AND PUSH1 0xE0 SHL DUP2 MSTORE PUSH1 0x4 ADD DUP1 DUP4 PUSH1 0x1 PUSH1 0x1 PUSH1 0xA0 SHL SUB AND DUP2 MSTORE PUSH1 0x20 ADD DUP3 ISZERO ISZERO DUP2 MSTORE PUSH1 0x20 ADD SWAP3 POP POP POP PUSH1 0x0 PUSH1 0x40 MLOAD DUP1 DUP4 SUB DUP2 PUSH1 0x0 DUP8 DUP1 EXTCODESIZE ISZERO DUP1 ISZERO PUSH2 0x416 JUMPI PUSH1 0x0 DUP1 REVERT JUMPDEST POP GAS CALL ISZERO DUP1 ISZERO PUSH2 0x42A JUMPI RETURNDATASIZE PUSH1 0x0 DUP1 RETURNDATACOPY RETURNDATASIZE PUSH1 0x0 REVERT JUMPDEST POP POP POP POP PUSH20 0x311BB771E4F8952E6DA169B425E7E92D6AC45756 PUSH1 0x1 PUSH1 0x1 PUSH1 0xA0 SHL SUB AND PUSH4 0x4B4E6753 DUP14 DUP7 PUSH1 0x40 MLOAD DUP4 PUSH4 0xFFFFFFFF AND PUSH1 0xE0 SHL DUP2 MSTORE PUSH1 0x4 ADD DUP1 DUP4 PUSH1 0x1 PUSH1 0x1 PUSH1 0xA0 SHL SUB AND DUP2 MSTORE PUSH1 0x20 ADD DUP3 DUP2 MSTORE PUSH1 0x20 ADD SWAP3 POP POP POP PUSH1 0x0 PUSH1 0x40 MLOAD DUP1 DUP4 SUB DUP2 PUSH1 0x0 DUP8 DUP1 EXTCODESIZE ISZERO DUP1 ISZERO PUSH2 0x499 JUMPI PUSH1 0x0 DUP1 REVERT JUMPDEST POP GAS CALL ISZERO DUP1 ISZERO PUSH2 0x4AD JUMPI RETURNDATASIZE PUSH1 0x0 DUP1 RETURNDATACOPY RETURNDATASIZE PUSH1 0x0 REVERT JUMPDEST POP POP POP POP DUP1 ISZERO PUSH2 0x540 JUMPI PUSH1 0x40 DUP1 MLOAD PUSH4 0x7C4E560B PUSH1 0xE0 SHL DUP2 MSTORE PUSH1 0x1 PUSH1 0x1 PUSH1 0xA0 SHL SUB DUP15 AND PUSH1 0x4 DUP3 ADD MSTORE PUSH1 0x24 DUP2 ADD DUP10 SWAP1 MSTORE PUSH1 0x44 DUP2 ADD DUP9 SWAP1 MSTORE PUSH1 0x64 DUP2 ADD DUP8 SWAP1 MSTORE SWAP1 MLOAD PUSH20 0x311BB771E4F8952E6DA169B425E7E92D6AC45756 SWAP2 PUSH4 0x7C4E560B SWAP2 PUSH1 0x84 DUP1 DUP4 ADD SWAP3 PUSH1 0x0 SWAP3 SWAP2 SWAP1 DUP3 SWAP1 SUB ADD DUP2 DUP4 DUP8 DUP1 EXTCODESIZE ISZERO DUP1 ISZERO PUSH2 0x527 JUMPI PUSH1 0x0 DUP1 REVERT JUMPDEST POP GAS CALL ISZERO DUP1 ISZERO PUSH2 0x53B JUMPI RETURNDATASIZE PUSH1 0x0 DUP1 RETURNDATACOPY RETURNDATASIZE PUSH1 0x0 REVERT JUMPDEST POP POP POP POP JUMPDEST PUSH1 0x40 MLOAD PUSH32 0xCF88C657FB0ECBED2A624B6B4C626E2CEDA32EA9ED16EA81DE6362A6D965BD08 SWAP1 PUSH1 0x0 SWAP1 LOG1 POP POP POP POP POP POP POP POP POP POP POP POP JUMP INVALID MSTORE8 SLOAD COINBASE TIMESTAMP 0x4C GASLIMIT 0x5F DIFFICULTY GASLIMIT TIMESTAMP SLOAD GASPRICE KECCAK256 JUMPI MSTORE 0x4F 0x4E SELFBALANCE 0x5F SSTORE 0x4E DIFFICULTY GASLIMIT MSTORE 0x4C MSIZE 0x49 0x4E SELFBALANCE 0x5F SLOAD 0x4F 0x4B GASLIMIT 0x4E JUMP COINBASE MSTORE 0x49 COINBASE TIMESTAMP 0x4C GASLIMIT 0x5F DIFFICULTY GASLIMIT TIMESTAMP SLOAD GASPRICE KECCAK256 JUMPI MSTORE 0x4F 0x4E SELFBALANCE 0x5F SSTORE 0x4E DIFFICULTY GASLIMIT MSTORE 0x4C MSIZE 0x49 0x4E SELFBALANCE 0x5F SLOAD 0x4F 0x4B GASLIMIT 0x4E LOG2 PUSH5 0x6970667358 0x22 SLT KECCAK256 SWAP10 0xD 0xB0 DUP2 DUP2 DUP9 PUSH4 0x52CDF546 ADD 0xE7 0xE0 CODESIZE 0xFC 0xF9 0xBD MOD 0xC4 INVALID CALLDATALOAD 0x2B SWAP11 0xD5 DIFFICULTY PUSH31 0x3525AA97E564736F6C634300060C0033000000000000000000000000000000 "
        },
        "gasEstimates": {
          "creation": {
            "codeDepositCost": "305000",
            "executionCost": "343",
            "totalCost": "305343"
          },
          "external": {
            "LENDING_POOL_CONFIGURATOR_V2()": "197",
            "execute(address,address,address,address,address,uint256,uint256,uint256,uint256,uint8,bool,bool)": "infinite"
          }
        },
        "methodIdentifiers": {
          "LENDING_POOL_CONFIGURATOR_V2()": "34f6cbbb",
          "execute(address,address,address,address,address,uint256,uint256,uint256,uint256,uint8,bool,bool)": "3dad012a"
        }
      },
      "storageLayout": {
        "storage": [],
        "types": null
      },
      "userdoc": {
        "kind": "user",
        "methods": {},
        "notice": "Proposal payload to be executed by the Aave Governance contract via DELEGATECALL",
        "version": 1
      }
    }
  }
}