{
  "_format": "hh-sol-artifact-1",
  "contractName": "AssetListingProposalGenericExecutor",
  "sourceName": "contracts/assetListing/AssetListingProposalGenericExecutor.sol",
  "abi": [
    {
      "anonymous": false,
      "inputs": [],
      "name": "ProposalExecuted",
      "type": "event"
    },
    {
      "inputs": [],
      "name": "LENDING_POOL_CONFIGURATOR_V2",
      "outputs": [
        {
          "internalType": "contract ILendingPoolConfiguratorV2",
          "name": "",
          "type": "address"
        }
      ],
      "stateMutability": "view",
      "type": "function"
    },
    {
      "inputs": [
        {
          "internalType": "address",
          "name": "token",
          "type": "address"
        },
        {
          "internalType": "address",
          "name": "aToken",
          "type": "address"
        },
        {
          "internalType": "address",
          "name": "stableDebtToken",
          "type": "address"
        },
        {
          "internalType": "address",
          "name": "variablDebtToken",
          "type": "address"
        },
        {
          "internalType": "address",
          "name": "interestStrategy",
          "type": "address"
        },
        {
          "internalType": "uint256",
          "name": "ltv",
          "type": "uint256"
        },
        {
          "internalType": "uint256",
          "name": "liquidationThreshold",
          "type": "uint256"
        },
        {
          "internalType": "uint256",
          "name": "liquidationBonus",
          "type": "uint256"
        },
        {
          "internalType": "uint256",
          "name": "reserveFactor",
          "type": "uint256"
        },
        {
          "internalType": "uint8",
          "name": "decimals",
          "type": "uint8"
        },
        {
          "internalType": "bool",
          "name": "enableBorrowOnReserve",
          "type": "bool"
        },
        {
          "internalType": "bool",
          "name": "enableAsCollateral",
          "type": "bool"
        }
      ],
      "name": "execute",
      "outputs": [],
      "stateMutability": "nonpayable",
      "type": "function"
    }
  ],
  "bytecode": "0x608060405234801561001057600080fd5b506105f5806100206000396000f3fe608060405234801561001057600080fd5b50600436106100365760003560e01c806334f6cbbb1461003b5780633dad012a1461005f575b600080fd5b6100436100dd565b604080516001600160a01b039092168252519081900360200190f35b6100db600480360361018081101561007657600080fd5b506001600160a01b0381358116916020810135821691604082013581169160608101358216916080820135169060a08101359060c08101359060e0810135906101008101359060ff6101208201351690610140810135151590610160013515156100f5565b005b73311bb771e4f8952e6da169b425e7e92d6ac4575681565b8a6001600160a01b031663b16a19de6040518163ffffffff1660e01b815260040160206040518083038186803b15801561012e57600080fd5b505afa158015610142573d6000803e3d6000fd5b505050506040513d602081101561015857600080fd5b50516001600160a01b038d81169116146101b9576040805162461bcd60e51b815260206004820152601e60248201527f41544f4b454e3a2057524f4e475f554e4445524c59494e475f544f4b454e0000604482015290519081900360640190fd5b896001600160a01b031663b16a19de6040518163ffffffff1660e01b815260040160206040518083038186803b1580156101f257600080fd5b505afa158015610206573d6000803e3d6000fd5b505050506040513d602081101561021c57600080fd5b50516001600160a01b038d81169116146102675760405162461bcd60e51b81526004018080602001828103825260238152602001806105786023913960400191505060405180910390fd5b886001600160a01b031663b16a19de6040518163ffffffff1660e01b815260040160206040518083038186803b1580156102a057600080fd5b505afa1580156102b4573d6000803e3d6000fd5b505050506040513d60208110156102ca57600080fd5b50516001600160a01b038d81169116146103155760405162461bcd60e51b815260040180806020018281038252602581526020018061059b6025913960400191505060405180910390fd5b60408051636e801a7160e01b81526001600160a01b038d811660048301528c811660248301528b8116604483015260ff861660648301528a166084820152905173311bb771e4f8952e6da169b425e7e92d6ac4575691636e801a719160a480830192600092919082900301818387803b15801561039157600080fd5b505af11580156103a5573d6000803e3d6000fd5b5050505073311bb771e4f8952e6da169b425e7e92d6ac457566001600160a01b031663eede87c18d846040518363ffffffff1660e01b815260040180836001600160a01b03168152602001821515815260200192505050600060405180830381600087803b15801561041657600080fd5b505af115801561042a573d6000803e3d6000fd5b5050505073311bb771e4f8952e6da169b425e7e92d6ac457566001600160a01b0316634b4e67538d866040518363ffffffff1660e01b815260040180836001600160a01b0316815260200182815260200192505050600060405180830381600087803b15801561049957600080fd5b505af11580156104ad573d6000803e3d6000fd5b5050505080156105405760408051637c4e560b60e01b81526001600160a01b038e166004820152602481018990526044810188905260648101879052905173311bb771e4f8952e6da169b425e7e92d6ac4575691637c4e560b91608480830192600092919082900301818387803b15801561052757600080fd5b505af115801561053b573d6000803e3d6000fd5b505050505b6040517fcf88c657fb0ecbed2a624b6b4c626e2ceda32ea9ed16ea81de6362a6d965bd0890600090a150505050505050505050505056fe535441424c455f444542543a2057524f4e475f554e4445524c59494e475f544f4b454e5641524941424c455f444542543a2057524f4e475f554e4445524c59494e475f544f4b454ea2646970667358221220990db08181886352cdf54601e7e038fcf9bd06c4fe352b9ad5447e3525aa97e564736f6c634300060c0033",
  "linkReferences": {},
  "deployedLinkReferences": {}
}