{
  "_format": "hh-sol-artifact-1",
  "contractName": "AssetListingGUni",
  "sourceName": "contracts/assetListing/AssetListingGUni.sol",
  "abi": [
    {
      "inputs": [],
      "name": "execute",
      "outputs": [],
      "stateMutability": "nonpayable",
      "type": "function"
    }
  ],
  "bytecode": "0x608060405234801561001057600080fd5b50610cbb806100206000396000f3fe608060405234801561001057600080fd5b506004361061002b5760003560e01c80636146195414610030575b600080fd5b61003861003a565b005b6100426107e9565b506040805161010081018252600460c082019081526361416d6d60e01b60e0830152815281518083018352600f81526e7661726961626c6544656274416d6d60881b6020828101919091528083019190915282518084018452600d81526c737461626c6544656274416d6d60981b818301528284015282518084018452601081526f020b0bb329020a6a69026b0b935b2ba160851b81830152606083015282518084018452601e81527f4161766520414d4d204d61726b6574205661726961626c6520446562742000008183015260808301528251808401909352601c83527f4161766520414d4d204d61726b657420537461626c65204465627420000000009083015260a081019190915261015661081f565b50604080518082019091527350379f632ca68d36e50cfbc8f78fe16bd1499d1e815273d2eec91055f07fe24c9ccb25828ecfefd4be0c41602082015261019a61081f565b50604080518082019091527350379f632ca68d36e50cfbc8f78fe16bd1499d1e815273d2eec91055f07fe24c9ccb25828ecfefd4be0c4160208201526101de61081f565b5060408051808201909152737843ea2e3e60b24cc12b56c5627adc7f9f0749d6815273399e3bb2bbd49c570aa6edc6ac390e0d0acbbd5e602082015261022261083d565b5060408051608081018252600b8183019081526a47554e494441495553444360a81b606083015281528151808301909252600c82526b11d553925554d110d554d11560a21b60208381019190915281019190915261027e610864565b5060408051608081018252611770818301818152611b586060808501829052918452845180860186529283526020808401919091528301919091528251600480825260a082019094529192909190816020015b6102d9610891565b8152602001906001900390816102d157905050905060005b81518110156104cf57604080516102008101825273517ad97cd3543ee616cdb3d7765b201d6c9dffdd815273135bb9dfd7880a53ef86b6f281aa4c3a9addb85c602082015273104e375e7a62ac88317b93a2288865513c1dc51191810191909152601260608201527352e39422cd86a12a13773d86af5fdbf5665989ad608082015260a0810188836002811061038357fe5b60200201516001600160a01b0316815260200173464c71f6c2f760dda6093dcb91c24c39e5d6e18c6001600160a01b0316815260200173d784927ff2f95ba542bfc824c8a8a98f3495f6b56001600160a01b031681526020018583600281106103e857fe5b602002015181526020016104108a6060015187856002811061040657fe5b60200201516107bd565b81526020016104298a6000015187856002811061040657fe5b81526020016104428a6080015187856002811061040657fe5b815260200161045b8a6020015187856002811061040657fe5b81526020016104748a60a0015187856002811061040657fe5b815260200161048d8a6040015187856002811061040657fe5b815260200160405180604001604052806002815260200161060f60f31b8152508152508282815181106104bc57fe5b60209081029190910101526001016102f1565b5060408051600280825260608083018452926020830190803683375050604080516002808252606080830184529495509092509060208301908036833701905050905060005b60028110156105985787816002811061052a57fe5b602002015183828151811061053b57fe5b60200260200101906001600160a01b031690816001600160a01b03168152505086816002811061056757fe5b602002015182828151811061057857fe5b6001600160a01b0390921660209283029190910190910152600101610515565b50604051630abfd53160e41b815273a50ba011c48153de246e5192c8f9258a2ba79ca99063abfd5310906105d29085908590600401610a5b565b600060405180830381600087803b1580156105ec57600080fd5b505af1158015610600573d6000803e3d6000fd5b505060405163cef84c5160e01b81527323a875ede3f1030138701683e42e9b16a7f87768925063cef84c51915061063b908690600401610a89565b600060405180830381600087803b15801561065557600080fd5b505af1158015610669573d6000803e3d6000fd5b5050505060005b83518110156107b1577323a875ede3f1030138701683e42e9b16a7f87768637c4e560b8a836002811061069f57fe5b60200201518784600281106106b057fe5b6020020151518885600281106106c257fe5b602002015160200151612cec6040518563ffffffff1660e01b81526004016106ed9493929190610a35565b600060405180830381600087803b15801561070757600080fd5b505af115801561071b573d6000803e3d6000fd5b505050507323a875ede3f1030138701683e42e9b16a7f877686001600160a01b0316634b4e67538a836002811061074e57fe5b60200201516105dc6040518363ffffffff1660e01b8152600401610773929190610a1c565b600060405180830381600087803b15801561078d57600080fd5b505af11580156107a1573d6000803e3d6000fd5b5050600190920191506106709050565b50505050505050505050565b606082826040516020016107d29291906109ed565b604051602081830303815290604052905092915050565b6040518060c001604052806060815260200160608152602001606081526020016060815260200160608152602001606081525090565b60405180604001604052806002906020820280368337509192915050565b60405180604001604052806002905b606081526020019060019003908161084c5790505090565b60405180604001604052806002905b61087b610950565b8152602001906001900390816108735790505090565b60405180610200016040528060006001600160a01b0316815260200160006001600160a01b0316815260200160006001600160a01b03168152602001600060ff16815260200160006001600160a01b0316815260200160006001600160a01b0316815260200160006001600160a01b0316815260200160006001600160a01b0316815260200160608152602001606081526020016060815260200160608152602001606081526020016060815260200160608152602001606081525090565b604051806040016040528060008152602001600081525090565b6001600160a01b03169052565b6000815180845260208085019450808401835b838110156109af5781516001600160a01b03168752958201959082019060010161098a565b509495945050505050565b600081518084526109d2816020860160208601610c55565b601f01601f19169290920160200192915050565b60ff169052565b600083516109ff818460208801610c55565b835190830190610a13818360208801610c55565b01949350505050565b6001600160a01b03929092168252602082015260400190565b6001600160a01b0394909416845260208401929092526040830152606082015260800190565b600060408252610a6e6040830185610977565b8281036020840152610a808185610977565b95945050505050565b60208082528251828201819052600091906040908185019080840286018301878501865b83811015610c4757603f198984030185528151610200610ace85835161096a565b88820151610ade8a87018261096a565b5087820151610aef8987018261096a565b50606080830151610b02828801826109e6565b5050608080830151610b168288018261096a565b505060a080830151610b2a8288018261096a565b505060c080830151610b3e8288018261096a565b505060e080830151610b528288018261096a565b5050610100808301518282880152610b6c838801826109ba565b925050506101208083015186830382880152610b8883826109ba565b925050506101408083015186830382880152610ba483826109ba565b925050506101608083015186830382880152610bc083826109ba565b925050506101808083015186830382880152610bdc83826109ba565b925050506101a08083015186830382880152610bf883826109ba565b925050506101c08083015186830382880152610c1483826109ba565b925050506101e08083015192508582038187015250610c3381836109ba565b968901969450505090860190600101610aad565b509098975050505050505050565b60005b83811015610c70578181015183820152602001610c58565b83811115610c7f576000848401525b5050505056fea2646970667358221220280c3cf351fd1c12f4295b551070db9e182bef10339e1a95bf64cd4e080f36eb64736f6c63430007050033",
  "linkReferences": {},
  "deployedLinkReferences": {}
}