{
    "address": "0x67e4EDE946b3d76c4C505566eB821a1470507d2d",
    "abi": [
        {
            "inputs": [],
            "name": "execute",
            "outputs": [],
            "stateMutability": "nonpayable",
            "type": "function"
        }
    ],
    "transactionHash": "0x5e1d0cce45fce2bdc2682f5b0b149e191c1b2289ceee71a38fefa45ba69faece",
    "args": [],
    "solcInputHash": "3bb601c3f0129396523dfba5e4876364",
    "bytecode": "0x608060405234801561001057600080fd5b50610cba806100206000396000f3fe608060405234801561001057600080fd5b506004361061002b5760003560e01c80636146195414610030575b600080fd5b61003861003a565b005b6100426107e8565b506040805161010081018252600460c082019081526361416d6d60e01b60e0830152815281518083018352600f81526e7661726961626c6544656274416d6d60881b6020828101919091528083019190915282518084018452600d81526c737461626c6544656274416d6d60981b818301528284015282518084018452601081526f020b0bb329020a6a69026b0b935b2ba160851b81830152606083015282518084018452601e81527f4161766520414d4d204d61726b6574205661726961626c6520446562742000008183015260808301528251808401909352601c83527f4161766520414d4d204d61726b657420537461626c65204465627420000000009083015260a081019190915261015661081e565b50604080518082019091527350379f632ca68d36e50cfbc8f78fe16bd1499d1e815273d2eec91055f07fe24c9ccb25828ecfefd4be0c41602082015261019a61081e565b50604080518082019091527350379f632ca68d36e50cfbc8f78fe16bd1499d1e815273d2eec91055f07fe24c9ccb25828ecfefd4be0c4160208201526101de61081e565b5060408051808201909152737843ea2e3e60b24cc12b56c5627adc7f9f0749d6815273399e3bb2bbd49c570aa6edc6ac390e0d0acbbd5e602082015261022261083c565b5060408051608081018252600b8183019081526a47556e694441495553444360a81b606083015281528151808301909252600c82526b11d55b9a5554d110d554d11560a21b60208381019190915281019190915261027e610863565b5060408051608081018252611770818301818152611b58606080850182905291845284518086018652928352602080840191909152830191909152825160028082528183019094529192909190816020015b6102d8610890565b8152602001906001900390816102d057905050905060005b81518110156104ce57604080516102008101825273517ad97cd3543ee616cdb3d7765b201d6c9dffdd815273135bb9dfd7880a53ef86b6f281aa4c3a9addb85c602082015273104e375e7a62ac88317b93a2288865513c1dc51191810191909152601260608201527352e39422cd86a12a13773d86af5fdbf5665989ad608082015260a0810188836002811061038257fe5b60200201516001600160a01b0316815260200173464c71f6c2f760dda6093dcb91c24c39e5d6e18c6001600160a01b0316815260200173d784927ff2f95ba542bfc824c8a8a98f3495f6b56001600160a01b031681526020018583600281106103e757fe5b6020020151815260200161040f8a6060015187856002811061040557fe5b60200201516107bc565b81526020016104288a6000015187856002811061040557fe5b81526020016104418a6080015187856002811061040557fe5b815260200161045a8a6020015187856002811061040557fe5b81526020016104738a60a0015187856002811061040557fe5b815260200161048c8a6040015187856002811061040557fe5b815260200160405180604001604052806002815260200161060f60f31b8152508152508282815181106104bb57fe5b60209081029190910101526001016102f0565b5060408051600280825260608083018452926020830190803683375050604080516002808252606080830184529495509092509060208301908036833701905050905060005b60028110156105975787816002811061052957fe5b602002015183828151811061053a57fe5b60200260200101906001600160a01b031690816001600160a01b03168152505086816002811061056657fe5b602002015182828151811061057757fe5b6001600160a01b0390921660209283029190910190910152600101610514565b50604051630abfd53160e41b815273a50ba011c48153de246e5192c8f9258a2ba79ca99063abfd5310906105d19085908590600401610a5a565b600060405180830381600087803b1580156105eb57600080fd5b505af11580156105ff573d6000803e3d6000fd5b505060405163cef84c5160e01b81527323a875ede3f1030138701683e42e9b16a7f87768925063cef84c51915061063a908690600401610a88565b600060405180830381600087803b15801561065457600080fd5b505af1158015610668573d6000803e3d6000fd5b5050505060005b83518110156107b0577323a875ede3f1030138701683e42e9b16a7f87768637c4e560b8a836002811061069e57fe5b60200201518784600281106106af57fe5b6020020151518885600281106106c157fe5b602002015160200151612cec6040518563ffffffff1660e01b81526004016106ec9493929190610a34565b600060405180830381600087803b15801561070657600080fd5b505af115801561071a573d6000803e3d6000fd5b505050507323a875ede3f1030138701683e42e9b16a7f877686001600160a01b0316634b4e67538a836002811061074d57fe5b60200201516103e86040518363ffffffff1660e01b8152600401610772929190610a1b565b600060405180830381600087803b15801561078c57600080fd5b505af11580156107a0573d6000803e3d6000fd5b50506001909201915061066f9050565b50505050505050505050565b606082826040516020016107d19291906109ec565b604051602081830303815290604052905092915050565b6040518060c001604052806060815260200160608152602001606081526020016060815260200160608152602001606081525090565b60405180604001604052806002906020820280368337509192915050565b60405180604001604052806002905b606081526020019060019003908161084b5790505090565b60405180604001604052806002905b61087a61094f565b8152602001906001900390816108725790505090565b60405180610200016040528060006001600160a01b0316815260200160006001600160a01b0316815260200160006001600160a01b03168152602001600060ff16815260200160006001600160a01b0316815260200160006001600160a01b0316815260200160006001600160a01b0316815260200160006001600160a01b0316815260200160608152602001606081526020016060815260200160608152602001606081526020016060815260200160608152602001606081525090565b604051806040016040528060008152602001600081525090565b6001600160a01b03169052565b6000815180845260208085019450808401835b838110156109ae5781516001600160a01b031687529582019590820190600101610989565b509495945050505050565b600081518084526109d1816020860160208601610c54565b601f01601f19169290920160200192915050565b60ff169052565b600083516109fe818460208801610c54565b835190830190610a12818360208801610c54565b01949350505050565b6001600160a01b03929092168252602082015260400190565b6001600160a01b0394909416845260208401929092526040830152606082015260800190565b600060408252610a6d6040830185610976565b8281036020840152610a7f8185610976565b95945050505050565b60208082528251828201819052600091906040908185019080840286018301878501865b83811015610c4657603f198984030185528151610200610acd858351610969565b88820151610add8a870182610969565b5087820151610aee89870182610969565b50606080830151610b01828801826109e5565b5050608080830151610b1582880182610969565b505060a080830151610b2982880182610969565b505060c080830151610b3d82880182610969565b505060e080830151610b5182880182610969565b5050610100808301518282880152610b6b838801826109b9565b925050506101208083015186830382880152610b8783826109b9565b925050506101408083015186830382880152610ba383826109b9565b925050506101608083015186830382880152610bbf83826109b9565b925050506101808083015186830382880152610bdb83826109b9565b925050506101a08083015186830382880152610bf783826109b9565b925050506101c08083015186830382880152610c1383826109b9565b925050506101e08083015192508582038187015250610c3281836109b9565b968901969450505090860190600101610aac565b509098975050505050505050565b60005b83811015610c6f578181015183820152602001610c57565b83811115610c7e576000848401525b5050505056fea2646970667358221220ccba85a4e3dae3d8e641805c8bce0c56b0b97a102ac6efb2297185f06f278a2b64736f6c63430007050033",
    "devdoc": {
        "kind": "dev",
        "methods": {},
        "version": 1
    },
    "userdoc": {
        "kind": "user",
        "methods": {},
        "version": 1
    },
    "storageLayout": {
        "storage": [],
        "types": null
    }
}