{
  "address": "0x27026F62Fa72B49A6C1294bB73ED3d8db68eB006",
  "abi": [
    {
      "anonymous": false,
      "inputs": [],
      "name": "ProposalExecuted",
      "type": "event"
    },
    {
      "inputs": [],
      "name": "LENDING_POOL_CONFIGURATOR_V2",
      "outputs": [
        {
          "internalType": "contract ILendingPoolConfiguratorV2",
          "name": "",
          "type": "address"
        }
      ],
      "stateMutability": "view",
      "type": "function"
    },
    {
      "inputs": [
        {
          "internalType": "address",
          "name": "token",
          "type": "address"
        },
        {
          "internalType": "address",
          "name": "aToken",
          "type": "address"
        },
        {
          "internalType": "address",
          "name": "stableDebtToken",
          "type": "address"
        },
        {
          "internalType": "address",
          "name": "variablDebtToken",
          "type": "address"
        },
        {
          "internalType": "address",
          "name": "interestStrategy",
          "type": "address"
        },
        {
          "internalType": "uint256",
          "name": "ltv",
          "type": "uint256"
        },
        {
          "internalType": "uint256",
          "name": "liquidationThreshold",
          "type": "uint256"
        },
        {
          "internalType": "uint256",
          "name": "liquidationBonus",
          "type": "uint256"
        },
        {
          "internalType": "uint8",
          "name": "decimals",
          "type": "uint8"
        },
        {
          "internalType": "bool",
          "name": "enableBorrowOnReserve",
          "type": "bool"
        },
        {
          "internalType": "bool",
          "name": "enableAsCollateral",
          "type": "bool"
        }
      ],
      "name": "execute",
      "outputs": [],
      "stateMutability": "nonpayable",
      "type": "function"
    }
  ],
  "transactionHash": "0x759aff3aaad3278f8500b008c423bf6f8f245703c918d5f4ca3dc7d8358ac8bb",
  "args": [],
  "solcInputHash": "e1ceab82017f97e6880e2c6694f30b60",
  "bytecode": "0x608060405234801561001057600080fd5b50610560806100206000396000f3fe608060405234801561001057600080fd5b50600436106100365760003560e01c806334f6cbbb1461003b5780637fd669931461005f575b600080fd5b6100436100d6565b604080516001600160a01b039092168252519081900360200190f35b6100d4600480360361016081101561007657600080fd5b506001600160a01b0381358116916020810135821691604082013581169160608101358216916080820135169060a08101359060c08101359060e08101359060ff6101008201351690610120810135151590610140013515156100ee565b005b73311bb771e4f8952e6da169b425e7e92d6ac4575681565b896001600160a01b031663b16a19de6040518163ffffffff1660e01b815260040160206040518083038186803b15801561012757600080fd5b505afa15801561013b573d6000803e3d6000fd5b505050506040513d602081101561015157600080fd5b50516001600160a01b038c81169116146101b2576040805162461bcd60e51b815260206004820152601e60248201527f41544f4b454e3a2057524f4e475f554e4445524c59494e475f544f4b454e0000604482015290519081900360640190fd5b886001600160a01b031663b16a19de6040518163ffffffff1660e01b815260040160206040518083038186803b1580156101eb57600080fd5b505afa1580156101ff573d6000803e3d6000fd5b505050506040513d602081101561021557600080fd5b50516001600160a01b038c81169116146102605760405162461bcd60e51b81526004018080602001828103825260238152602001806104e36023913960400191505060405180910390fd5b876001600160a01b031663b16a19de6040518163ffffffff1660e01b815260040160206040518083038186803b15801561029957600080fd5b505afa1580156102ad573d6000803e3d6000fd5b505050506040513d60208110156102c357600080fd5b50516001600160a01b038c811691161461030e5760405162461bcd60e51b81526004018080602001828103825260258152602001806105066025913960400191505060405180910390fd5b60408051636e801a7160e01b81526001600160a01b038c811660048301528b811660248301528a8116604483015260ff8616606483015289166084820152905173311bb771e4f8952e6da169b425e7e92d6ac4575691636e801a719160a480830192600092919082900301818387803b15801561038a57600080fd5b505af115801561039e573d6000803e3d6000fd5b50506040805163eede87c160e01b81526001600160a01b038f1660048201528515156024820152905173311bb771e4f8952e6da169b425e7e92d6ac45756935063eede87c19250604480830192600092919082900301818387803b15801561040557600080fd5b505af1158015610419573d6000803e3d6000fd5b5050505080156104ac5760408051637c4e560b60e01b81526001600160a01b038d166004820152602481018890526044810187905260648101869052905173311bb771e4f8952e6da169b425e7e92d6ac4575691637c4e560b91608480830192600092919082900301818387803b15801561049357600080fd5b505af11580156104a7573d6000803e3d6000fd5b505050505b6040517fcf88c657fb0ecbed2a624b6b4c626e2ceda32ea9ed16ea81de6362a6d965bd0890600090a1505050505050505050505056fe535441424c455f444542543a2057524f4e475f554e4445524c59494e475f544f4b454e5641524941424c455f444542543a2057524f4e475f554e4445524c59494e475f544f4b454ea2646970667358221220758a6331a70734c7e5b491e3911c37b3ceaec9591fce9947097885fe9f13e87964736f6c634300060c0033",
  "devdoc": {
    "author": "Aave*",
    "kind": "dev",
    "methods": {
      "execute(address,address,address,address,address,uint256,uint256,uint256,uint8,bool,bool)": {
        "details": "Payload execution function, called once a proposal passed in the Aave governance"
      }
    },
    "title": "AssetListingProposalGenericExecutor",
    "version": 1
  },
  "userdoc": {
    "kind": "user",
    "methods": {},
    "notice": "Proposal payload to be executed by the Aave Governance contract via DELEGATECALL",
    "version": 1
  },
  "storageLayout": {
    "storage": [],
    "types": null
  }
}