{
  "address": "0x1438f4F4E8FfD2d08F373AF7FC84Be0164F09e67",
  "abi": [
    {
      "anonymous": false,
      "inputs": [],
      "name": "ProposalExecuted",
      "type": "event"
    },
    {
      "inputs": [],
      "name": "LENDING_POOL_ADDRESSES_PROVIDER",
      "outputs": [
        {
          "internalType": "contract ILendingPoolAddressesProvider",
          "name": "",
          "type": "address"
        }
      ],
      "stateMutability": "view",
      "type": "function"
    },
    {
      "inputs": [
        {
          "internalType": "address",
          "name": "token",
          "type": "address"
        },
        {
          "internalType": "address",
          "name": "aToken",
          "type": "address"
        },
        {
          "internalType": "address",
          "name": "stableDebtToken",
          "type": "address"
        },
        {
          "internalType": "address",
          "name": "variablDebtToken",
          "type": "address"
        },
        {
          "internalType": "address",
          "name": "interestStrategy",
          "type": "address"
        },
        {
          "internalType": "uint256",
          "name": "ltv",
          "type": "uint256"
        },
        {
          "internalType": "uint256",
          "name": "liquidationThreshold",
          "type": "uint256"
        },
        {
          "internalType": "uint256",
          "name": "liquidationBonus",
          "type": "uint256"
        },
        {
          "internalType": "uint256",
          "name": "reserveFactor",
          "type": "uint256"
        },
        {
          "internalType": "uint8",
          "name": "decimals",
          "type": "uint8"
        },
        {
          "internalType": "bool",
          "name": "enableBorrow",
          "type": "bool"
        },
        {
          "internalType": "bool",
          "name": "enableStableBorrow",
          "type": "bool"
        },
        {
          "internalType": "bool",
          "name": "enableAsCollateral",
          "type": "bool"
        }
      ],
      "name": "execute",
      "outputs": [],
      "stateMutability": "nonpayable",
      "type": "function"
    }
  ],
  "transactionHash": "0x2a19460b27f42f9aa4d3258d7a1c14f018749deb4ff1e1f0ab1854b3e186fd36",
  "args": [],
  "solcInputHash": "1d6524fdfdc8f51e876d963d390e56b4",
  "bytecode": "0x608060405234801561001057600080fd5b5061064c806100206000396000f3fe608060405234801561001057600080fd5b50600436106100365760003560e01c806306eefdf41461003b5780633fa572311461005f575b600080fd5b6100436100e6565b604080516001600160a01b039092168252519081900360200190f35b6100e460048036036101a081101561007657600080fd5b506001600160a01b0381358116916020810135821691604082013581169160608101358216916080820135169060a08101359060c08101359060e0810135906101008101359060ff6101208201351690610140810135151590610160810135151590610180013515156100fe565b005b7388757f2f99175387ab4c6a4b3067c77a695b034981565b60007388757f2f99175387ab4c6a4b3067c77a695b03496001600160a01b03166385c858b16040518163ffffffff1660e01b815260040160206040518083038186803b15801561014d57600080fd5b505afa158015610161573d6000803e3d6000fd5b505050506040513d602081101561017757600080fd5b5051604080516358b50cef60e11b815290519192506001600160a01b038f169163b16a19de91600480820192602092909190829003018186803b1580156101bd57600080fd5b505afa1580156101d1573d6000803e3d6000fd5b505050506040513d60208110156101e757600080fd5b50516001600160a01b038f8116911614610248576040805162461bcd60e51b815260206004820152601e60248201527f41544f4b454e3a2057524f4e475f554e4445524c59494e475f544f4b454e0000604482015290519081900360640190fd5b8b6001600160a01b031663b16a19de6040518163ffffffff1660e01b815260040160206040518083038186803b15801561028157600080fd5b505afa158015610295573d6000803e3d6000fd5b505050506040513d60208110156102ab57600080fd5b50516001600160a01b038f81169116146102f65760405162461bcd60e51b81526004018080602001828103825260238152602001806105cf6023913960400191505060405180910390fd5b8a6001600160a01b031663b16a19de6040518163ffffffff1660e01b815260040160206040518083038186803b15801561032f57600080fd5b505afa158015610343573d6000803e3d6000fd5b505050506040513d602081101561035957600080fd5b50516001600160a01b038f81169116146103a45760405162461bcd60e51b81526004018080602001828103825260258152602001806105f26025913960400191505060405180910390fd5b60408051636e801a7160e01b81526001600160a01b038f811660048301528e811660248301528d8116604483015260ff881660648301528c81166084830152915191831691636e801a719160a48082019260009290919082900301818387803b15801561041057600080fd5b505af1158015610424573d6000803e3d6000fd5b5050505083156104a057806001600160a01b031663eede87c18f856040518363ffffffff1660e01b815260040180836001600160a01b03168152602001821515815260200192505050600060405180830381600087803b15801561048757600080fd5b505af115801561049b573d6000803e3d6000fd5b505050505b806001600160a01b0316634b4e67538f886040518363ffffffff1660e01b815260040180836001600160a01b0316815260200182815260200192505050600060405180830381600087803b1580156104f757600080fd5b505af115801561050b573d6000803e3d6000fd5b50505050811561059557806001600160a01b0316637c4e560b8f8b8b8b6040518563ffffffff1660e01b815260040180856001600160a01b03168152602001848152602001838152602001828152602001945050505050600060405180830381600087803b15801561057c57600080fd5b505af1158015610590573d6000803e3d6000fd5b505050505b6040517fcf88c657fb0ecbed2a624b6b4c626e2ceda32ea9ed16ea81de6362a6d965bd0890600090a1505050505050505050505050505056fe535441424c455f444542543a2057524f4e475f554e4445524c59494e475f544f4b454e5641524941424c455f444542543a2057524f4e475f554e4445524c59494e475f544f4b454ea264697066735822122014f649caded5951c12c1f2fe63b0c0580c4c976e93dab0370ba9d85d44e57fa164736f6c634300060c0033",
  "devdoc": {
    "author": "Aave*",
    "kind": "dev",
    "methods": {
      "execute(address,address,address,address,address,uint256,uint256,uint256,uint256,uint8,bool,bool,bool)": {
        "details": "Payload execution function, called once a proposal passed in the Aave governance"
      }
    },
    "title": "AssetListingProposalGenericExecutor",
    "version": 1
  },
  "userdoc": {
    "kind": "user",
    "methods": {},
    "notice": "Proposal payload to be executed by the Aave Governance contract via DELEGATECALL",
    "version": 1
  },
  "storageLayout": {
    "storage": [],
    "types": null
  }
}